:020000040000FA
:040000008831592BBF
:040008008831642BAC
:02000E00B50833
:10001000031D0B280800F93000000000000000005C
:1000200000000000000000000000000000000000D0
:10003000FF3E031D0C28000000000000000000002F
:1000400000000000000000000000000000000000B0
:10005000B50B0B280800FA30B5000720FA30B500C0
:100060000720FA30B5000720FA30B5000720B40B9E
:100070002B2808003B08BF003C08C0003E08003C9D
:1000800003184D28400885003F088400BF0A031963
:10009000C00A3D088000BE033E283B08C1003C0862
:1000A000C200080023009518522822003D082300B2
:1000B000910022003E08230093009513151522009D
:1000C0003F108B1B3F148B13553023009600AA3032
:1000D00096009514151122003F188B173F1C8B13A7
:1000E0000800C301C4014408803AC5004008803AB2
:1000F0004502031D7D283F084302031808003E08FF
:1001000085003D0884004308C500450884070008B1
:10011000C60042088500410884000008C700C735B2
:100120004608C7064208850047088000C30A03192D
:10013000C40A73282200B401B501B60108303502A3
:1001400036080318A5280319A728B61F352901303A
:100150008500203084003508B9000310390D84076C
:100160000008B700840A0008B8003708BD00380846
:10017000BE000830BF00C0010130C2003430C100F1
:1001800071203508BA003608BB00BA0DBB0DBA0D98
:10019000BB0DBA0DBB0DBA0DBB0DF030BA053A0858
:1001A000BD0038088500370884000008BE005220D2
:1001B0003A0ABD0038088500370A84000008BE00EE
:1001C000522002303A07BD00380885003708840005
:1001D000023084070008BF00840A0008BE005220D5
:1001E00003303A07BD003808850037088400023024
:1001F00084070008BE00840A522004303A07BD007C
:100200003808850037088400043084070008BE00E1
:10021000522005303A07BD003808850037088400B1
:10022000053084070008BE00522006303A07BD00A2
:100230003808850037088400063084070008BE00AF
:100240005220BC0138088500370884000730840735
:100250008008031D3C1407303A07BD003C08BE006F
:100260005220B50A0319B60A9E28FF30BD00340893
:10027000BE00522008002200B301B401083033024E
:1002800034080318452903194729B41F0800013011
:100290008500203084003308B7000310370D840731
:1002A0000008B500840A0008B6003508BB0036080F
:1002B000BC00BD011130BE003A203608850035086B
:1002C00084000030800033083C3EB800840A3808BF
:1002D0008000840302308407840A1430B80080014F
:1002E0008403380880003508840004308407803097
:1002F00080003508840005308407643080003508AC
:100300008400063084078030800035088400073080
:10031000840700308000350884000230840700081C
:10032000BA00840A0008B900350884000A3084073E
:10033000840A3908800084033A0880003508840064
:10034000053084070008B800350884000C308407A5
:1003500038088000B30A0319B40A3E293308003C68
:1003600034080318031DB41B080020008C16C83085
:100370002200B500072020008C12C8302200B500F2
:100380000720B3080319B403B303AE29230095185B
:10039000C62922003F082300910095131514130865
:1003A0002200C0000800CA01CB01CC01CD01CE0162
:1003B000CA1A0800461CEA294208CB07430803185A
:1003C000430FCC0744080318440FCD074508031812
:1003D000450FCE070310C90CC80CC70CC60C031080
:1003E000C20DC30DC40DC50DCA0AD82923009D1C1A
:1003F000FB291D121D167C087B0603195B2A2000B1
:1004000000308500203084007C088407000822002A
:10041000B400FC0A14307C020318FC01B41F392A12
:10042000F0303405B5003508803A03192D2A103A0A
:1004300003192D2A303A03192D2A103A03192D2AAF
:10044000703A03192D2A203A03192D2A303A03193C
:10045000332A203A0319FB29FB293408FD00023016
:10046000FE00FF01FB293408FD000130FE00FF0102
:10047000FB2900308500783084007F08FF0A84075C
:10048000340880007E087F02031CFB29FF01F03046
:100490007D05B5003508803A0319582A103A03192A
:1004A000582A203A0319582A503A0319582AFB2986
:1004B0007D08B60008002200B60108002200B20143
:1004C000B301B4010830330234080318692A031950
:1004D0006B2AB41F382B013085002030840033088C
:1004E000B7000310370D84070008B500840A000820
:1004F000B6003508BB003608BC00BD011130BE0097
:100500003A203308B8003408B900B80DB90DB80D59
:10051000B90DB80DB90DB80DB90DF030B8053808E2
:10052000BF00C621360885003508840040088000D9
:10053000380ABF00C62136088500350A8400400805
:10054000800002303807BF00C6214008BD00BC0152
:10055000BE01360885003508840002308407840A0D
:100560003D08800084033E08800003303807BF0048
:10057000C6214008BB00BC01360885003508840050
:10058000023084070008BD00840A3B08BD043C0813
:10059000800484033D08800004303807BF00C62172
:1005A0003608850035088400043084074008800040
:1005B00005303807BF00C62136088500350884009D
:1005C000053084074008800006303807BF00C62188
:1005D000360885003508840006308407400880000E
:1005E00007303807BF00C6214008BA0001303A057D
:1005F000BB00BC01BB080319BC0ABD01BC08031940
:10060000BD0A3608850035088400073084073D0898
:10061000800035088400023084070008BD00840A89
:100620000008BC00350884000A308407840A3C08AE
:10063000800084033D08800035088400053084076D
:100640000008BB00350884000C3084073B0880009C
:100650003508BD003608BE000830BF00C0010130BB
:10066000C2003230C1007120B30A0319B40A622AF1
:100670002100EF08031D442BFF302200BF00C621DC
:1006800032084006031908000A302200B300B40102
:10069000AE213B219A2008002000911491122100E4
:1006A0009110911623001F129F159F101F101E13EB
:1006B0009E121E129E111E111E109D171D139D16B7
:1006C0001D169C011E309B000800B601B7010830C2
:1006D0003602370803186E2B0319702BB71F08005A
:1006E00001308500203084003608BA0003103A0D2E
:1006F00084070008B800840A0008B900390885009A
:100700003808840034080006031D132C39088500BE
:1007100038088400043084070008823A0319003A3C
:10072000031DD62B39088500380884000230840761
:100730000008C200840A0008C300C401C501801F6C
:10074000A32BC403C50384033508C600C701C80131
:10075000C901D3214B08BD004C08BE004D08C000A4
:100760004E08BF00C00CBE0CBD0CC00CBE0CBD0CB6
:10077000C00CBE0CBD0CC00CBE0CBD0CC00CBE0C25
:10078000BD0CC00CBE0CBD0CC00CBE0CBD0C7F3033
:10079000BD05BC0139088500380884000A3084078B
:1007A000840A3C08800084033D08800039088500E5
:1007B00038088400063084070008823A0319003A9A
:1007C000031D132C39088500380884000530840780
:1007D0000008C200C301C401C5013508C600C70135
:1007E000C801C901D3214B08BB004C08BE004D080D
:1007F000BC004E08BD00BE0CBB0CBE0CBB0CBE0C3E
:10080000BB0CBE0CBB0CBE0CBB0CBE0CBB0CBE0CA4
:10081000BB0C7F30BB0539088500380884000C30DC
:1008200084073B088000B60A0319B70A672B01301A
:10083000B9003608013A0319302C033A03193A2C4F
:10084000013A0319442C073A0319972C013A03196A
:10085000D32C033A0319EB2C013A0319202D2C2D2C
:10086000B80803192D2D3508850034088400370891
:1008700080002D2DB80803192D2D35088500340A68
:100880008400370880002D2DB8080319622C350824
:10089000850034088400023084070008BA00840A06
:1008A0008030BA0584033A0880003408840002309E
:1008B00084070008BA00840A3708BA0484033A0897
:1008C0008000812C3708BB00BA01BB0DBA0DBB0DEF
:1008D000BA0DBB0DBA0DBB0DBA0DBB0DBA0DBB0DDC
:1008E000BA0DBB0DBA0D8030BB0535088500340844
:1008F000840002308407840A3A08800084033B089D
:100900008000350885003408840002308407000820
:10091000BC00840A0008BB00340884000A30840745
:10092000840A3B08800084033C0880002D2DB80811
:100930000319A92C35088500340884000430840785
:100940008030800534088400043084073708800430
:10095000BD2C3708BA00BC01BA0DBA0DBA0DBA0DDC
:10096000BA0DBA0DBA0D8030BA05350885003408C5
:100970008400043084073A08800035088500340874
:100980008400023084070008BC00840A0008BB0011
:10099000340884000A308407840A3B0880008403FA
:1009A0003C0880002D2DB80803192D2D3508850031
:1009B0003408840005308407370880003408840038
:1009C000053084070008BA00340884000C3084071E
:1009D0003A0880002D2DB8080319FD2C3508850034
:1009E0003408840006308407803080053408840091
:1009F0000630840737088004112D3708BA00BC017F
:100A0000BA0DBA0DBA0DBA0DBA0DBA0DBA0D8030C5
:100A1000BA053508850034088400063084073A0892
:100A200080003508850034088400053084070008FC
:100A3000BA00340884000C3084073A0880002D2D59
:100A4000B80803192D2D35088500340884000730B7
:100A50008407370880002D2DB901B9080319080053
:100A600001302100E4000800B601B7010830360269
:100A7000370803183D2D03193F2DB71F080001301B
:100A80008500203084003608BA0003103A0D840730
:100A90000008B800840A0008B90039088500380841
:100AA000840034080006031D7B2D39088500380AB0
:100AB000840000083506031D7B2D390885003808A1
:100AC0008400083084070008BB00840AFF30000659
:100AD000031D7B2D3B08FF3A031D7B2D3908850044
:100AE0003808840008308407840A0030BB00800185
:100AF00084033B088000B60A0319B70A362DB701F4
:100B0000B8010830370238080318882D03198A2DD8
:100B1000B81F080001308500203084003708BB0072
:100B200003103B0D84070008B900840A0008BA00CE
:100B30003A0885003908840034080006031D682E31
:100B40003A08850039088400043084070008813A97
:100B50000319003A031DF02D3A0885003908840076
:100B6000023084070008C200840A0008C300C401E0
:100B7000C501801FBD2DC403C50384033608C6000C
:100B8000C701C801C901D3214B08BE004C08BF00F2
:100B90004D08C1004E08C000C10CBF0CBE0CC10CFA
:100BA000BF0CBE0CC10CBF0CBE0CC10CBF0CBE0CEC
:100BB000C10CBF0CBE0CC10CBF0CBE0CC10CBF0CD9
:100BC000BE0C7F30BE05BD013A088500390884009F
:100BD0000A308407840A3D08800084033E088000B0
:100BE0003A08850039088400063084070008813AF5
:100BF0000319003A031D2D2E3A0885003908840098
:100C0000053084070008C200C301C401C5013608CD
:100C1000C600C701C801C901D3214B08BC004C085C
:100C2000BF004D08BD004E08BE00BF0CBC0CBF0C81
:100C3000BC0CBF0CBC0CBF0CBC0CBF0CBC0CBF0C68
:100C4000BC0CBF0CBC0C7F30BC053A0885003908D1
:100C500084000C3084073C0880003A088500390A7B
:100C6000840000083506031D682E3A0885003908FF
:100C70008400023084070008BC00840ABC08031DFD
:100C8000532E8008031D532E3A088500390884002E
:100C900008308407840AFF30BC008001800384038D
:100CA0003C088000682E3A088500390884000A3024
:100CB00084070008BE00840A0008BD0039088400CB
:100CC00008308407840A3D08800084033E088000C1
:100CD000B70A0319B80A812DB701B80108303702E5
:100CE00038080318752E0319772EB81F0800013035
:100CF0008500203084003708BB0003103B0D8407BB
:100D00000008B900840A0008BA003A0885003908CA
:100D1000840034080006031D162F3A0885003908A0
:100D200084000430840735080006031DDB2E3A08D2
:100D3000850039088400023084070008C200840A54
:100D40000008C300C401C501801FA82EC403C50349
:100D500084033608C600C701C801C901D3214B0866
:100D6000BE004C08BF004D08C1004E08C000C10CB9
:100D7000BF0CBE0CC10CBF0CBE0CC10CBF0CBE0C1A
:100D8000C10CBF0CBE0CC10CBF0CBE0CC10CBF0C07
:100D9000BE0CC10CBF0CBE0C7F30BE05BD013A08B5
:100DA0008500390884000A308407840A3D088000E1
:100DB00084033E0880003A08850039088400063024
:100DC000840735080006031D162F3A0885003908E8
:100DD0008400053084070008C200C301C401C501B6
:100DE0003608C600C701C801C901D3214B08BC00A1
:100DF0004C08BF004D08BD004E08BE00BF0CBC0C27
:100E0000BF0CBC0CBF0CBC0CBF0CBC0CBF0CBC0C96
:100E1000BF0CBC0CBF0CBC0C7F30BC053A08850075
:100E2000390884000C3084073C088000B70A031995
:100E3000B80A6E2E7A302100990010308C002030D4
:100E40008E0023008C018E0120008C018E01240075
:100E50000C16210095134C238B170B1721009512AC
:100E600095111511951415148B160B118B170B1763
:100E700000302200A1003430A0000030A300453033
:100E8000A2000030A5005630A4000030A700673053
:100E9000A6000030A900A030A8000030AB00B1309F
:100EA000AA000030AD00C230AC000030AF00D3303B
:100EB000AE000530B50007202100EF0120000C1A1C
:100EC000632F2100EF0A21005E222100E701E801E3
:100ED000E901EA01EB01EC01ED01EE012200B001B4
:100EE000B101F62136082100EF00EF080319812F28
:100EF000E708031D812FE808031D812F0A30E70052
:100F0000E801F0306F052200B4003408903A031D68
:100F1000982FF9080319982F0F3021006F05220030
:100F2000B4007808B5007908B6007F2588313328E9
:100F3000F03021006F052200B4003408803A031914
:100F4000AA2FF03021006F052200B4003408903A37
:100F5000031DB42F0F3021006F052200B400780864
:100F6000B500342588313328F03021006F05220088
:100F7000B2003208B03A8831031D21282100EB0865
:100F8000031915287808633A80310319D22F013AE2
:100F90000319D62F643A0319DA2F203A0319DA2FEE
:100FA000883109287908ED00883133287908EC0068
:100FB0008831332808306D020318FD2F22000130DC
:100FC00085002030840021006D082200B900031044
:100FD000390D84070008B400840A0008B500210018
:100FE0006C082200B6007908B700B80126307802F4
:100FF0000319B80A1724883133286D08643A8831F8
:10100000031D33286C03031D332880319A20883157
:1010100033280F306F052200B4007808B500790836
:10102000B60080316C26883133280F306F052200DE
:10103000B4007808B5007908B60080316C26883194
:101040003328F03021006F052200B3003308E03A66
:10105000031D33280F3021006F052200B4007808EB
:10106000B500803165232100E7088831031D3B2846
:10107000E80803195B28E7080319E803E7032200DF
:10108000B4012100E708031D47282200B40A21000B
:10109000E80803194D282200B4012200B501B40864
:1010A0000319B50A351C562820008C162200351865
:1010B0005B2820008C12FA0803191C29FA01210070
:1010C000E501E6010830650266080318692803197E
:1010D0006B28E61FAF2822000130850020308400F5
:1010E000210065082200B4000310340D8407840A2F
:1010F0000008B50084030008840035088500083026
:1011000084070008B600840A3608003C000803186B
:10111000031D801BAA280130850020308400210097
:1011200065082200B6000310360D8407840A000803
:10113000B70084030008840037088500083084075E
:101140000008B800840AB80803198003B8038403B0
:10115000380880002100E50A0319E60A6228EB0836
:10116000031DD52820000C1EB9282100E901EA0141
:101170001C292100E90A0319EA0A03306A02031D47
:10118000C328E8306902031C1C29EA1B1C29200023
:101190008C1601302200B40080312B2020008C12EC
:1011A00001302100EB0088311C29E40803190229D1
:1011B00020000C1AE8288C1601302200B40080317F
:1011C0002B2020008C129A202100E40188311C2958
:1011D0002200B00A0319B10A3008B40031080139FD
:1011E000B500B408031D1C29B508031D1C292100E6
:1011F000E708031D1C29E808031D1C296430E700CB
:10120000E8011C292200B00A0319B10A3008B40011
:1012100031080739B500B408031D1C29B508031DA2
:101220001C292100E708031D1C29E808031D1C29AF
:10123000F430E7000130E8002000BB080319402922
:101240002200B7012000BC08031D28292200B70A8C
:101250002000BD0803192E292200B7012200B60183
:101260002000400821006E02031838292200B60A27
:101270002200B401B608031DB708031DB40A5B2998
:101280002200B6012000400821006E0203184A29FE
:101290002200B60A2200B5012000BC080319BD08CF
:1012A000031954292200B608031958292200B50A47
:1012B00022003508B400341C5F2920000E162200DD
:1012C0003418642920000E122000CC080319882944
:1012D0002200B7012000CD08031D70292200B70AA3
:1012E0002000CE08031976292200B7012200B6019A
:1012F0002000510821006E02031880292200B60A3E
:101300002200B401B608031DB708031DB40AA329BF
:101310002200B6012000510821006E020318922914
:101320002200B60A2200B5012000CD080319CE081C
:1013300003199C292200B6080319A0292200B50A26
:1013400022003508B400341CA72920008E14220086
:101350003418AC2920008E102000DD080319D02994
:101360002200B7012000DE08031DB8292200B70AB9
:101370002000DF080319BE292200B7012200B601B0
:101380002000620821006E020318C8292200B60A54
:101390002200B401B608031DB708031DB40AEB29E7
:1013A0002200B6012000620821006E020318DA292B
:1013B0002200B60A2200B5012000DE080319DF086A
:1013C0000319E4292200B6080319E8292200B50A06
:1013D00022003508B400341CEF2920008E152200AD
:1013E0003418F42920008E112000EE080319162A63
:1013F0002200B7012000EF08031D002A2200B70ACF
:10140000F0080319052A2200B7012200B60173086B
:1014100021006E0203180E2A2200B60A2200B4012F
:10142000B608031DB708031DB40A302A2200B6010E
:10143000730821006E0203181F2A2200B60A220038
:10144000B5012000EF080319F0080319292A22002A
:10145000B60803192D2A2200B50A22003508B40067
:10146000341C342A20000E1522003418392A20009A
:101470000E112100A70803195C2A2200B7012100E0
:10148000A808031D452A2200B70A2100A90803194C
:101490004B2A2200B7012200B60121002C086E025F
:1014A0000318542A2200B60A2200B401B608031D0C
:1014B000B708031DB40A762A2200B60121002C08C1
:1014C0006E020318652A2200B60A2200B501210027
:1014D000A8080319A90803196F2A2200B6080319DE
:1014E000732A2200B50A22003508B400341C7A2A77
:1014F00020000E14220034187F2A20000E10210034
:10150000B8080319A22A2200B7012100B908031D57
:101510008B2A2200B70A2100BA080319912A220057
:10152000B7012200B60121003D086E0203189A2A75
:101530002200B60A2200B401B608031DB708031D35
:10154000B40ABC2A2200B60121003D086E0203182D
:10155000AB2A2200B60A2200B5012100B9080319FE
:10156000BA080319B52A2200B6080319B92A2200BD
:10157000B50A22003508B400341CC02A20000C151E
:1015800022003418C52A20000C112100C9080319B3
:10159000E82A2200B7012100CA08031DD12A22002F
:1015A000B70A2100CB080319D72A2200B70122006D
:1015B000B60121004E086E020318E02A2200B60A86
:1015C0002200B401B608031DB708031DB40A022B9C
:1015D0002200B60121004E086E020318F12A2200F3
:1015E000B60A2200B5012100CA080319CB08031965
:1015F000FB2A2200B6080319FF2A2200B50A22009E
:101600003508B400341C062B20008C14220034183A
:101610000B2B20008C102100DA0803192E2B22003E
:10162000B7012100DB08031D172B2200B70A210098
:10163000DC0803191D2B2200B7012200B60121008E
:101640005F086E020318262B2200B60A2200B4019E
:10165000B608031DB708031DB40A482B2200B601C3
:1016600021005F086E020318372B2200B60A220001
:10167000B5012100DB080319DC080319412B220006
:10168000B6080319452B2200B50A22003508B4001C
:10169000341C4C2B20000C1422003418512B200039
:1016A0000C102100EE0A6E08643C031CEE01803130
:1016B000712FFA01FB01FC01FD01FE01FF01F801A0
:1016C0002100E40180311A2F0B1D6C2B0530200006
:1016D00095000130FA000B112000911E0900230033
:1016E00019082200CF007B0AD00014305002031CDE
:1016F0007B2B1430D0027C0850060319090020000F
:1017000000308500203084007B08840722004F08C9
:0817100080005008FB000900F5
:020000040001F9
:02000E00A4FF4D
:02001000FFDE11
:00000001FF
