:020000040000FA
:040000008831092B0F
:040008008831142BFC
:02000E00B50833
:10001000031D0B280800F93000000000000000005C
:1000200000000000000000000000000000000000D0
:10003000FF3E031D0C28000000000000000000002F
:1000400000000000000000000000000000000000B0
:10005000B50B0B280800FA30B5000720FA30B500C0
:100060000720FA30B5000720FA30B5000720B40B9E
:100070002B2808003B08BF003C08C0003E08003C9D
:1000800003184D28400885003F088400BF0A031963
:10009000C00A3D088000BE033E283B08C1003C0862
:1000A000C200080023009518522822003D082300B2
:1000B000910022003E08230093009513151522009D
:1000C0003F108B1B3F148B13553023009600AA3032
:1000D00096009514151122003F188B173F1C8B13A7
:1000E0000800C301C4014408803AC5004008803AB2
:1000F0004502031D7D283F084302031808003E08FF
:1001000085003D0884004308C500450884070008B1
:10011000C60042088500410884000008C700C735B2
:100120004608C7064208850047088000C30A03192D
:10013000C40A73282200B401B501B60108303502A3
:1001400036080318A5280319A728B61F352901303A
:100150008500203084003508B9000310390D84076C
:100160000008B700840A0008B8003708BD00380846
:10017000BE000830BF00C0010130C2003430C100F1
:1001800071203508BA003608BB00BA0DBB0DBA0D98
:10019000BB0DBA0DBB0DBA0DBB0DF030BA053A0858
:1001A000BD0038088500370884000008BE005220D2
:1001B0003A0ABD0038088500370A84000008BE00EE
:1001C000522002303A07BD00380885003708840005
:1001D000023084070008BF00840A0008BE005220D5
:1001E00003303A07BD003808850037088400023024
:1001F00084070008BE00840A522004303A07BD007C
:100200003808850037088400043084070008BE00E1
:10021000522005303A07BD003808850037088400B1
:10022000053084070008BE00522006303A07BD00A2
:100230003808850037088400063084070008BE00AF
:100240005220BC0138088500370884000730840735
:100250008008031D3C1407303A07BD003C08BE006F
:100260005220B50A0319B60A9E28FF30BD00340893
:10027000BE00522008002200B301B401083033024E
:1002800034080318452903194729B41F0800013011
:100290008500203084003308B7000310370D840731
:1002A0000008B500840A0008B6003508BB0036080F
:1002B000BC00BD011130BE003A203608850035086B
:1002C00084000030800033083C3EB800840A3808BF
:1002D0008000840302308407840A1430B80080014F
:1002E0008403380880003508840004308407803097
:1002F00080003508840005308407643080003508AC
:100300008400063084078030800035088400073080
:10031000840700308000350884000230840700081C
:10032000BA00840A0008B900350884000A3084073E
:10033000840A3908800084033A0880003508840064
:10034000053084070008B800350884000C308407A5
:1003500038088000B30A0319B40A3E293308003C68
:1003600034080318031DB41B080020008C16C83085
:100370002200B500072020008C12C8302200B500F2
:100380000720B3080319B403B303AE29230095185B
:10039000C62922003F082300910095131514130865
:1003A0002200C0000800CA01CB01CC01CD01CE0162
:1003B000CA1A0800461CEA294208CB07430803185A
:1003C000430FCC0744080318440FCD074508031812
:1003D000450FCE070310C90CC80CC70CC60C031080
:1003E000C20DC30DC40DC50DCA0AD82923009D1C1A
:1003F000FB291D121D167C087B0603195A2A0030A2
:100400008500203084007C08840700082200B400A6
:10041000FC0A14307C020318FC01B41F382AF030A7
:100420003405B5003508803A03192C2A103A03190F
:100430002C2A303A03192C2A103A03192C2A703A24
:1004400003192C2A203A03192C2A303A0319322A8C
:10045000203A0319FB29FB293408FD000230FE0075
:10046000FF01FB293408FD000130FE00FF01FB29DC
:1004700000308500783084007F08FF0A8407340844
:1004800080007E087F02031CFB29FF01F0307D0500
:10049000B5003508803A0319572A103A0319572A2C
:1004A000203A0319572A503A0319572AFB297D0885
:1004B000B60008002200B60108002200B201B30114
:1004C000B4010830330234080318682A03196A2A71
:1004D000B41F372B01308500203084003308B7006B
:1004E0000310370D84070008B500840A0008B60021
:1004F0003508BB003608BC00BD011130BE003A20F3
:100500003308B8003408B900B80DB90DB80DB90DED
:10051000B80DB90DB80DB90DF030B8053808BF00E9
:10052000C621360885003508840040088000380A56
:10053000BF00C62136088500350A840040088000C7
:1005400002303807BF00C6214008BD00BC01BE0113
:10055000360885003508840002308407840A3D0887
:10056000800084033E08800003303807BF00C621A6
:100570004008BB00BC013608850035088400023005
:1005800084070008BD00840A3B08BD043C088004C1
:1005900084033D08800004303807BF00C6213608B8
:1005A0008500350884000430840740088000053049
:1005B0003807BF00C621360885003508840005309D
:1005C00084074008800006303807BF00C62136087F
:1005D0008500350884000630840740088000073015
:1005E0003807BF00C6214008BA0001303A05BB00F9
:1005F000BC01BB080319BC0ABD01BC080319BD0A34
:100600003608850035088400073084073D088000DF
:1006100035088400023084070008BD00840A000801
:10062000BC00350884000A308407840A3C08800036
:1006300084033D08800035088400053084070008E5
:10064000BB00350884000C3084073B088000350867
:10065000BD003608BE000830BF00C0010130C20036
:100660003230C1007120B30A0319B40A612A210093
:10067000EF08031D432BFF302200BF00C6213208C4
:100680004006031908000A302200B300B401AE216D
:100690003B219A2008002000911491122100911012
:1006A000911623001F129F159F101F101E139E12DC
:1006B0001E129E111E111E109D171D139D161D1634
:1006C0009C011E309B000800B601B70108303602BD
:1006D000370803186D2B03196F2BB71F0800013063
:1006E0008500203084003608BA0003103A0D8407D4
:1006F0000008B800840A0008B900390885003808E5
:10070000840034080006031D122C390885003808BF
:100710008400043084070008823A0319003A031D5C
:10072000D52B39088500380884000230840700087A
:10073000C200840A0008C300C401C501801FA22BA7
:10074000C403C50384033508C600C701C801C90135
:10075000D3214B08BD004C08BE004D08C0004E0818
:10076000BF00C00CBE0CBD0CC00CBE0CBD0CC00C40
:10077000BE0CBD0CC00CBE0CBD0CC00CBE0CBD0C28
:10078000C00CBE0CBD0CC00CBE0CBD0C7F30BD053A
:10079000BC0139088500380884000A308407840ABF
:1007A0003C08800084033D08800039088500380833
:1007B0008400063084070008823A0319003A031DBA
:1007C000122C390885003808840005308407000899
:1007D000C200C301C401C5013508C600C701C80174
:1007E000C901D3214B08BB004C08BE004D08BC001A
:1007F0004E08BD00BE0CBB0CBE0CBB0CBE0CBB0C33
:10080000BE0CBB0CBE0CBB0CBE0CBB0CBE0CBB0CA4
:100810007F30BB0539088500380884000C30840718
:100820003B088000B60A0319B70A662B0130B900ED
:100830003608013A03192F2C033A0319392C013ACF
:100840000319432C073A0319962C013A0319D22CA9
:10085000033A0319EA2C013A03191F2D2B2DB8086E
:1008600003192C2D350885003408840037088000D2
:100870002C2DB80803192C2D35088500340A840066
:10088000370880002C2DB8080319612C3508850025
:1008900034088400023084070008BA00840A8030DB
:1008A000BA0584033A0880003408840002308407C3
:1008B0000008BA00840A3708BA0484033A088000A2
:1008C000802C3708BB00BA01BB0DBA0DBB0DBA0DA9
:1008D000BB0DBA0DBB0DBA0DBB0DBA0DBB0DBA0DDC
:1008E000BB0DBA0D8030BB05350885003408840087
:1008F00002308407840A3A08800084033B088000A1
:100900003508850034088400023084070008BC00E4
:10091000840A0008BB00340884000A308407840A73
:100920003B08800084033C0880002C2DB808031984
:10093000A82C3508850034088400043084078030F2
:100940008005340884000430840737088004BC2CF8
:100950003708BA00BC01BA0DBA0DBA0DBA0DBA0DFE
:10096000BA0DBA0D8030BA05350885003408840008
:10097000043084073A088000350885003408840074
:10098000023084070008BC00840A0008BB00340859
:1009900084000A308407840A3B08800084033C08F2
:1009A00080002C2DB80803192C2D3508850034083B
:1009B000840005308407370880003408840005303F
:1009C00084070008BA00340884000C3084073A0811
:1009D00080002C2DB8080319FC2C3508850034083C
:1009E0008400063084078030800534088400063097
:1009F000840737088004102D3708BA00BC01BA0DEF
:100A0000BA0DBA0DBA0DBA0DBA0DBA0D8030BA05CD
:100A10003508850034088400063084073A088000D1
:100A20003508850034088400053084070008BA00C2
:100A3000340884000C3084073A0880002C2DB80854
:100A400003192C2D350885003408840007308407ED
:100A5000370880002C2DB901B908031908000130AE
:100A60002100E4000800B601B7010830360237085B
:100A700003183C2D03193E2DB71F080001308500D7
:100A8000203084003608BA0003103A0D84070008AD
:100A9000B800840A0008B9003908850038088400C5
:100AA00034080006031D7A2D39088500380A8400B1
:100AB00000083506031D7A2D3908850038088400A2
:100AC000083084070008BB00840AFF300006031DBD
:100AD0007A2D3B08FF3A031D7A2D39088500380826
:100AE000840008308407840A0030BB00800184033E
:100AF0003B088000B60A0319B70A352DB701B801C3
:100B00000830370238080318872D0319892DB81FBC
:100B1000080001308500203084003708BB00031036
:100B20003B0D84070008B900840A0008BA003A089F
:100B300085003908840034080006031D672E3A0832
:100B4000850039088400043084070008813A0319BD
:100B5000003A031DEF2D3A08850039088400023061
:100B600084070008C200840A0008C300C401C5014C
:100B7000801FBC2DC403C50384033608C600C7010B
:100B8000C801C901D3214B08BE004C08BF004D0865
:100B9000C1004E08C000C10CBF0CBE0CC10CBF0C84
:100BA000BE0CC10CBF0CBE0CC10CBF0CBE0CC10CEA
:100BB000BF0CBE0CC10CBF0CBE0CC10CBF0CBE0CDC
:100BC0007F30BE05BD013A088500390884000A302F
:100BD0008407840A3D08800084033E0880003A08A8
:100BE000850039088400063084070008813A03191B
:100BF000003A031D2C2E3A08850039088400053080
:100C000084070008C200C301C401C5013608C6003C
:100C1000C701C801C901D3214B08BC004C08BF0063
:100C20004D08BD004E08BE00BF0CBC0CBF0CBC0C78
:100C3000BF0CBC0CBF0CBC0CBF0CBC0CBF0CBC0C68
:100C4000BF0CBC0C7F30BC053A0885003908840015
:100C50000C3084073C0880003A088500390A84007B
:100C600000083506031D672E3A0885003908840000
:100C7000023084070008BC00840ABC08031D522E01
:100C80008008031D522E3A08850039088400083078
:100C90008407840AFF30BC008001800384033C0881
:100CA0008000672E3A088500390884000A308407DE
:100CB0000008BE00840A0008BD003908840008301E
:100CC0008407840A3D08800084033E088000B70A38
:100CD0000319B80A802DB701B80108303702380867
:100CE0000318742E0319762EB81F080001308500F2
:100CF000203084003708BB0003103B0D8407000838
:100D0000B900840A0008BA003A088500390884004E
:100D100034080006031D152F3A08850039088400A1
:100D20000430840735080006031DDA2E3A088500D2
:100D300039088400023084070008C200840A0008D1
:100D4000C300C401C501801FA72EC403C5038403CB
:100D50003608C600C701C801C901D3214B08BE002F
:100D60004C08BF004D08C1004E08C000C10CBF0CAC
:100D7000BE0CC10CBF0CBE0CC10CBF0CBE0CC10C18
:100D8000BF0CBE0CC10CBF0CBE0CC10CBF0CBE0C0A
:100D9000C10CBF0CBE0C7F30BE05BD013A088500FA
:100DA000390884000A308407840A3D0880008403DF
:100DB0003E0880003A088500390884000630840720
:100DC00035080006031D152F3A08850039088400F0
:100DD000053084070008C200C301C401C5013608FC
:100DE000C600C701C801C901D3214B08BC004C088B
:100DF000BF004D08BD004E08BE00BF0CBC0CBF0CB0
:100E0000BC0CBF0CBC0CBF0CBC0CBF0CBC0CBF0C96
:100E1000BC0CBF0CBC0C7F30BC053A0885003908FF
:100E200084000C3084073C088000B70A0319B80A14
:100E30006D2E7A3021009900FF308C008E008C12CC
:100E400023008C018E0120008C018E0110302400C3
:100E50008C008E01210095134B238B170B1721005B
:100E6000951295111511951415148B160B118B17DE
:100E70000B1700302200A1003430A0000030A30086
:100E80004530A2000030A5005630A4000030A70075
:100E90006730A6000030A900A030A8000030AB00E9
:100EA000B130AA000030AD00C230AC000030AF005D
:100EB000D330AE000530B50007202100EF0120003F
:100EC0000C1A642F2100EF0A21005D222100EF019E
:100ED0002000BB08031D6E2F2100EF0A21006F18B0
:100EE0008E156F1C8E11EF012000CC08031D7A2F88
:100EF0002100EF0A21006F180E166F1C0E12EF0171
:100F00002000DD08031D862F2100EF0A21006F1845
:100F10000E156F1C0E11EF012000EE08031D922F1D
:100F20002100EF0A21006F188E146F1C8E10EF0144
:100F3000A7080319EF0A6F180E146F1C0E10EF01AB
:100F4000B8080319EF0A6F180C156F1C0C11EF018C
:100F5000C9080319EF0A6F188C146F1C8C10EF016D
:100F6000DA080319EF0A6F180C146F1C0C1022001A
:100F70008E110E120E118E100E100C118C100C1002
:100F80002100E701E801E901EA01EB01EC01ED01D3
:100F9000EE012200B001B101F62136082100EF0078
:100FA000EF080319DC2FE708031DDC2FE808031DF9
:100FB000DC2F0A30E700E801F0306F052200B400B2
:100FC0003408903A031DF32FF9080319F32F0F305B
:100FD00021006F052200B4007808B5007908B6003A
:100FE0007E2588318928F03021006F052200B40069
:100FF0003408803A883103190628F03021006F0543
:101000002200B4003408903A031D11280F3021004B
:101010006F052200B4007808B5008031332588318F
:101020008928F03021006F052200B2003208B03A62
:10103000031D77282100EB0803196B287808633A11
:1010400003192C28013A03192F28643A031932286E
:10105000203A031932285F287908ED008928790899
:10106000EC00892808306D020318542801308500EF
:10107000203084006D082200B9000310390D840768
:101080000008B400840A0008B50021006C082200A2
:10109000B6007908B700B801263078020319B80AFB
:1010A00080311624883189286D08643A031D892807
:1010B0006C03031D892880319A20883189280F30DC
:1010C0006F052200B4007808B5007908B6008031B9
:1010D0006B26883189280F306F052200B40078080C
:1010E000B5007908B60080316B2688318928F03048
:1010F00021006F052200B3003308E03A031D892860
:101100000F3021006F052200B4007808B50080314F
:1011100064232100E7088831031D9128E80803199A
:10112000B128E7080319E803E7032200B40121000E
:10113000E708031D9D282200B40A2100E8080319CE
:10114000A3282200B4012200B501B4080319B50A8E
:10115000351CAC2820008C1622003518B128200040
:101160008C12FA0803197029FA012100E501E60141
:101170000830650266080318BF280319C128E61F56
:101180000329013085002030840065082200B40066
:101190000310340D8407840A0008B5008403000896
:1011A000840035088500083084070008B600840AEA
:1011B0003608003C00080318031D801BFE28013080
:1011C000850020308400210065082200B60003104D
:1011D000360D8407840A0008B700840300088400E1
:1011E00037088500083084070008B800840AB8086A
:1011F00003198003B8038403380880002100E50A3E
:101200000319E60AB828EB08031D292920000C1E43
:101210000D292100E901EA0170292100E90A0319D9
:10122000EA0A03306A02031D1729E8306902031C29
:101230007029EA1B702920008C1601302200B400AE
:1012400080312B2020008C1201302100EB008831EE
:101250007029E4080319562920000C1A3C298C1621
:1012600001302200B40080312B2020008C129A2003
:101270002100E401883170292200B00A0319B10A63
:101280003008B40031080139B500B408031D7029D5
:10129000B508031D70292100E708031D7029E8081F
:1012A000031D70296430E700E80170292200B00AAC
:1012B0000319B10A3008B40031080739B500B40881
:1012C000031D7029B508031D70292100E708031DBF
:1012D0007029E808031D7029F430E7000130E800A8
:1012E0002000BB08031988292200B4012000BC0893
:1012F000031D7C292200B40A2000BD08031982299D
:101300002200B4012200B501B4080319B50A9929D5
:101310002200B6012000BC08031D90292200B60A55
:101320002000BD08031996292200B60122003608C4
:10133000B500351C9D2921008E1522003518A229E3
:1013400021008E112000CC080319BA292200B40113
:101350002000CD08031DAE292200B40A2000CE08CB
:101360000319B4292200B4012200B501B4080319FD
:10137000B50ACB292200B6012000CD08031DC229E1
:101380002200B60A2000CE080319C8292200B6019F
:1013900022003608B500351CCF2921000E16220088
:1013A0003518D42921000E122000DD080319EC297C
:1013B0002200B4012000DE08031DE0292200B40A47
:1013C0002000DF080319E6292200B4012200B5013C
:1013D000B4080319B50AFD292200B6012000DE0871
:1013E000031DF4292200B60A2000DF080319FA2998
:1013F0002200B60122003608B500351C012A210062
:101400000E1522003518062A21000E112000EE08C4
:1014100003191D2A2200B4012000EF08031D122A1F
:101420002200B40AF0080319172A2200B40122008E
:10143000B501B4080319B50A2D2A2200B60120000F
:10144000EF08031D252A2200B60AF00803192A2AEC
:101450002200B60122003608B500351C312A2100D1
:101460008E1422003518362A21008E102100A7087C
:1014700003194E2A2200B4012100A808031D422AA4
:101480002200B40A2100A9080319482A2200B40145
:101490002200B501B4080319B50A5F2A2200B6017B
:1014A0002100A808031D562A2200B60A2100A90817
:1014B00003195C2A2200B60122003608B500351C4B
:1014C000632A21000E1422003518682A21000E100C
:1014D0002100B8080319802A2200B4012100B908AC
:1014E000031D742A2200B40A2100BA0803197A2ABB
:1014F0002200B4012200B501B4080319B50A912AEB
:101500002200B6012100B908031D882A2200B60A6C
:101510002100BA0803198E2A2200B60122003608DB
:10152000B500351C952A21000C15220035189A2A81
:1015300021000C112100C9080319B22A2200B401AC
:101540002100CA08031DA62A2200B40A2100CB08E4
:101550000319AC2A2200B4012200B501B408031912
:10156000B50AC32A2200B6012100CA08031DBA2AFF
:101570002200B60A2100CB080319C02A2200B601B6
:1015800022003608B500351CC72A21008C14220021
:101590003518CC2A21008C102100DA080319E42A1E
:1015A0002200B4012100DB08031DD82A2200B40A5E
:1015B0002100DC080319DE2A2200B4012200B50153
:1015C000B4080319B50AF52A2200B6012100DB0888
:1015D000031DEC2A2200B60A2100DC080319F22AB6
:1015E0002200B60122003608B500351CF92A210078
:1015F0000C1422003518FE2A21000C1022008E1136
:101600000E120E118E100E100C118C100C10803159
:10161000CC2FFA01FB01FC01FD01FE01FF01F801E5
:101620002100E4018031192F0B1D1C2B05302000F7
:1016300095000130FA000B112000911E09002300D3
:1016400019082200CF007B0AD00014305002031C7E
:101650002B2B1430D0027C085006031909000030EF
:101660008500203084007B0884074F0880005008E4
:04167000FB00090072
:020000040001F9
:02000E00A4FF4D
:02001000FFDE11
:00000001FF
