:020000040000FA
:040000008831AD2B6B
:040008008831B82B58
:02000E00B50833
:10001000031D0B280800F93000000000000000005C
:1000200000000000000000000000000000000000D0
:10003000FF3E031D0C28000000000000000000002F
:1000400000000000000000000000000000000000B0
:10005000B50B0B280800FA30B5000720FA30B500C0
:100060000720FA30B5000720FA30B5000720B40B9E
:100070002B2808003B08BF003C08C0003E08003C9D
:1000800003184D28400885003F088400BF0A031963
:10009000C00A3D088000BE033E283B08C1003C0862
:1000A000C200080023009518522822003D082300B2
:1000B000910022003E08230093009513151522009D
:1000C0003F108B1B3F148B13553023009600AA3032
:1000D00096009514151122003F188B173F1C8B13A7
:1000E0000800C301C4014408803AC5004008803AB2
:1000F0004502031D7D283F084302031808003E08FF
:1001000085003D0884004308C500450884070008B1
:10011000C60042088500410884000008C700C735B2
:100120004608C7064208850047088000C30A03192D
:10013000C40A73282200B401B501B60108303502A3
:1001400036080318A5280319A728B61F352901303A
:100150008500203084003508B9000310390D84076C
:100160000008B700840A0008B8003708BD00380846
:10017000BE000830BF00C0010130C2003430C100F1
:1001800071203508BA003608BB00BA0DBB0DBA0D98
:10019000BB0DBA0DBB0DBA0DBB0DF030BA053A0858
:1001A000BD0038088500370884000008BE005220D2
:1001B0003A0ABD0038088500370A84000008BE00EE
:1001C000522002303A07BD00380885003708840005
:1001D000023084070008BF00840A0008BE005220D5
:1001E00003303A07BD003808850037088400023024
:1001F00084070008BE00840A522004303A07BD007C
:100200003808850037088400043084070008BE00E1
:10021000522005303A07BD003808850037088400B1
:10022000053084070008BE00522006303A07BD00A2
:100230003808850037088400063084070008BE00AF
:100240005220BC0138088500370884000730840735
:100250008008031D3C1407303A07BD003C08BE006F
:100260005220B50A0319B60A9E28FF30BD00340893
:10027000BE00522008002200B301B401083033024E
:1002800034080318452903194729B41F0800013011
:100290008500203084003308B7000310370D840731
:1002A0000008B500840A0008B6003508BB0036080F
:1002B000BC00BD011130BE003A203608850035086B
:1002C00084000030800033083C3EB800840A3808BF
:1002D0008000840302308407840A1430B80080014F
:1002E0008403380880003508840004308407803097
:1002F00080003508840005308407643080003508AC
:100300008400063084078030800035088400073080
:10031000840700308000350884000230840700081C
:10032000BA00840A0008B900350884000A3084073E
:10033000840A3908800084033A0880003508840064
:10034000053084070008B800350884000C308407A5
:1003500038088000B30A0319B40A3E293308003C68
:1003600034080318031DB41B080020000C16C83005
:100370002200B500072020000C12C8302200B50072
:100380000720B3080319B403B303AE29230095185B
:10039000C62922003F082300910095131514130865
:1003A0002200C0000800CA01CB01CC01CD01CE0162
:1003B000CA1A0800461CEA294208CB07430803185A
:1003C000430FCC0744080318440FCD074508031812
:1003D000450FCE070310C90CC80CC70CC60C031080
:1003E000C20DC30DC40DC50DCA0AD82923009D1C1A
:1003F000FB291D121D167C087B0603195A2A0030A2
:100400008500203084007C08840700082200B400A6
:10041000FC0A14307C020318FC01B41F382AF030A7
:100420003405B5003508803A03192C2A103A03190F
:100430002C2A303A03192C2A103A03192C2A703A24
:1004400003192C2A203A03192C2A303A0319322A8C
:10045000203A0319FB29FB293408FD000230FE0075
:10046000FF01FB293408FD000130FE00FF01FB29DC
:1004700000308500783084007F08FF0A8407340844
:1004800080007E087F02031CFB29FF01F0307D0500
:10049000B5003508803A0319572A103A0319572A2C
:1004A000203A0319572A503A0319572AFB297D0885
:1004B000B60008002200B60108002200B201B30114
:1004C000B4010830330234080318682A03196A2A71
:1004D000B41F372B01308500203084003308B7006B
:1004E0000310370D84070008B500840A0008B60021
:1004F0003508BB003608BC00BD011130BE003A20F3
:100500003308B8003408B900B80DB90DB80DB90DED
:10051000B80DB90DB80DB90DF030B8053808BF00E9
:10052000C621360885003508840040088000380A56
:10053000BF00C62136088500350A840040088000C7
:1005400002303807BF00C6214008BD00BC01BE0113
:10055000360885003508840002308407840A3D0887
:10056000800084033E08800003303807BF00C621A6
:100570004008BB00BC013608850035088400023005
:1005800084070008BD00840A3B08BD043C088004C1
:1005900084033D08800004303807BF00C6213608B8
:1005A0008500350884000430840740088000053049
:1005B0003807BF00C621360885003508840005309D
:1005C00084074008800006303807BF00C62136087F
:1005D0008500350884000630840740088000073015
:1005E0003807BF00C6214008BA0001303A05BB00F9
:1005F000BC01BB080319BC0ABD01BC080319BD0A34
:100600003608850035088400073084073D088000DF
:1006100035088400023084070008BD00840A000801
:10062000BC00350884000A308407840A3C08800036
:1006300084033D08800035088400053084070008E5
:10064000BB00350884000C3084073B088000350867
:10065000BD003608BE000830BF00C0010130C20036
:100660003230C1007120B30A0319B40A612A210093
:10067000EF08031D432BFF302200BF00C6213208C4
:100680004006031908000A302200B300B401AE216D
:100690003B219A2008002000911491122100911012
:1006A000911623001F129F159F101F101E139E12DC
:1006B0001E129E111E111E109D171D139D161D1634
:1006C0009C011F309B000800B601B70108303602BC
:1006D000370803186D2B03196F2BB71F0800013063
:1006E0008500203084003608BA0003103A0D8407D4
:1006F0000008B800840A0008B900390885003808E5
:10070000840034080006031D122C390885003808BF
:100710008400043084070008823A0319003A031D5C
:10072000D52B39088500380884000230840700087A
:10073000C200840A0008C300C401C501801FA22BA7
:10074000C403C50384033508C600C701C801C90135
:10075000D3214B08BD004C08BE004D08C0004E0818
:10076000BF00C00CBE0CBD0CC00CBE0CBD0CC00C40
:10077000BE0CBD0CC00CBE0CBD0CC00CBE0CBD0C28
:10078000C00CBE0CBD0CC00CBE0CBD0C7F30BD053A
:10079000BC0139088500380884000A308407840ABF
:1007A0003C08800084033D08800039088500380833
:1007B0008400063084070008823A0319003A031DBA
:1007C000122C390885003808840005308407000899
:1007D000C200C301C401C5013508C600C701C80174
:1007E000C901D3214B08BB004C08BE004D08BC001A
:1007F0004E08BD00BE0CBB0CBE0CBB0CBE0CBB0C33
:10080000BE0CBB0CBE0CBB0CBE0CBB0CBE0CBB0CA4
:100810007F30BB0539088500380884000C30840718
:100820003B088000B60A0319B70A662B0130B900ED
:100830003608013A03192F2C033A0319392C013ACF
:100840000319432C073A0319962C013A0319D22CA9
:10085000033A0319EA2C013A03191F2D2B2DB8086E
:1008600003192C2D350885003408840037088000D2
:100870002C2DB80803192C2D35088500340A840066
:10088000370880002C2DB8080319612C3508850025
:1008900034088400023084070008BA00840A8030DB
:1008A000BA0584033A0880003408840002308407C3
:1008B0000008BA00840A3708BA0484033A088000A2
:1008C000802C3708BB00BA01BB0DBA0DBB0DBA0DA9
:1008D000BB0DBA0DBB0DBA0DBB0DBA0DBB0DBA0DDC
:1008E000BB0DBA0D8030BB05350885003408840087
:1008F00002308407840A3A08800084033B088000A1
:100900003508850034088400023084070008BC00E4
:10091000840A0008BB00340884000A308407840A73
:100920003B08800084033C0880002C2DB808031984
:10093000A82C3508850034088400043084078030F2
:100940008005340884000430840737088004BC2CF8
:100950003708BA00BC01BA0DBA0DBA0DBA0DBA0DFE
:10096000BA0DBA0D8030BA05350885003408840008
:10097000043084073A088000350885003408840074
:10098000023084070008BC00840A0008BB00340859
:1009900084000A308407840A3B08800084033C08F2
:1009A00080002C2DB80803192C2D3508850034083B
:1009B000840005308407370880003408840005303F
:1009C00084070008BA00340884000C3084073A0811
:1009D00080002C2DB8080319FC2C3508850034083C
:1009E0008400063084078030800534088400063097
:1009F000840737088004102D3708BA00BC01BA0DEF
:100A0000BA0DBA0DBA0DBA0DBA0DBA0D8030BA05CD
:100A10003508850034088400063084073A088000D1
:100A20003508850034088400053084070008BA00C2
:100A3000340884000C3084073A0880002C2DB80854
:100A400003192C2D350885003408840007308407ED
:100A5000370880002C2DB901B908031908000130AE
:100A60002100E4000800B601B7010830360237085B
:100A700003183C2D03193E2DB71F080001308500D7
:100A8000203084003608BA0003103A0D84070008AD
:100A9000B800840A0008B9003908850038088400C5
:100AA00034080006031D7A2D39088500380A8400B1
:100AB00000083506031D7A2D3908850038088400A2
:100AC000083084070008BB00840AFF300006031DBD
:100AD0007A2D3B08FF3A031D7A2D39088500380826
:100AE000840008308407840A0030BB00800184033E
:100AF0003B088000B60A0319B70A352DB701B801C3
:100B00000830370238080318872D0319892DB81FBC
:100B1000080001308500203084003708BB00031036
:100B20003B0D84070008B900840A0008BA003A089F
:100B300085003908840034080006031D422E3A0857
:100B4000850039088400043084070008813A0319BD
:100B5000003A031DEF2D3A08850039088400023061
:100B600084070008C200840A0008C300C401C5014C
:100B7000801FBC2DC403C50384033608C600C7010B
:100B8000C801C901D3214B08BE004C08BF004D0865
:100B9000C1004E08C000C10CBF0CBE0CC10CBF0C84
:100BA000BE0CC10CBF0CBE0CC10CBF0CBE0CC10CEA
:100BB000BF0CBE0CC10CBF0CBE0CC10CBF0CBE0CDC
:100BC0007F30BE05BD013A088500390884000A302F
:100BD0008407840A3D08800084033E0880003A08A8
:100BE000850039088400063084070008813A03191B
:100BF000003A031D2C2E3A08850039088400053080
:100C000084070008C200C301C401C5013608C6003C
:100C1000C701C801C901D3214B08BC004C08BF0063
:100C20004D08BD004E08BE00BF0CBC0CBF0CBC0C78
:100C3000BF0CBC0CBF0CBC0CBF0CBC0CBF0CBC0C68
:100C4000BF0CBC0C7F30BC053A0885003908840015
:100C50000C3084073C0880003A088500390A84007B
:100C600000083506031D422E3A0885003908840025
:100C700008308407840AFF30BC00800180038403AD
:100C80003C088000B70A0319B80A802DB701B801E3
:100C900008303702380803184F2E0319512EB81F99
:100CA000080001308500203084003708BB000310A5
:100CB0003B0D84070008B900840A0008BA003A080E
:100CC00085003908840034080006031DF02E3A0818
:100CD0008500390884000430840735080006031DA8
:100CE000B52E3A08850039088400023084070008D0
:100CF000C200840A0008C300C401C501801F822EFF
:100D0000C403C50384033608C600C701C801C9016E
:100D1000D3214B08BE004C08BF004D08C1004E084F
:100D2000C000C10CBF0CBE0CC10CBF0CBE0CC10C72
:100D3000BF0CBE0CC10CBF0CBE0CC10CBF0CBE0C5A
:100D4000C10CBF0CBE0CC10CBF0CBE0C7F30BE056D
:100D5000BD013A088500390884000A308407840AF6
:100D60003D08800084033E0880003A088500390869
:100D700084000630840735080006031DF02E3A086B
:100D8000850039088400053084070008C200C301CB
:100D9000C401C5013608C600C701C801C901D32175
:100DA0004B08BC004C08BF004D08BD004E08BE00FB
:100DB000BF0CBC0CBF0CBC0CBF0CBC0CBF0CBC0CE7
:100DC000BF0CBC0CBF0CBC0CBF0CBC0C7F30BC05FA
:100DD0003A088500390884000C3084073C088000FC
:100DE000B70A0319B80A482E7A30210099008430D6
:100DF00022009D00FF3021008C008E000C12230089
:100E00008C018E0120008C018E0124008C152100A4
:100E100095134B238B170B17210095129511151164
:100E2000951415148B160B118B170B17003022001D
:100E3000A1003430A0000030A3004530A2000030F3
:100E4000A5005630A4000030A7006730A60000308F
:100E5000A900A030A8000030AB00B130AA000030DB
:100E6000AD00C230AC000030AF00D330AE00053072
:100E7000B50007202100EF0120008C19412F21002F
:100E8000EF0A21005D222100EF012000BB08031DB5
:100E90004B2F2100EF0A2200B2012100EF08031DB1
:100EA000532F2200B20A220032180E14321C0E10E8
:100EB0002100EF012000CC08031D602F2100EF0A64
:100EC0002200B2012100EF08031D682F2200B20AA0
:100ED000220032180E15321C0E112100EF012000E5
:100EE000DD08031D752F2100EF0A2200B201210049
:100EF000EF08031D7D2F2200B20A220032188E1542
:100F0000321C8E112100EF012000EE08031D8A2FF4
:100F10002100EF0A2200B2012100EF08031D922FE9
:100F20002200B20A220032180E16321C0E122100C4
:100F3000EF01A7080319EF0A2200B2012100EF0810
:100F4000031DA42F2200B20A220032180C15321CF5
:100F50000C112100EF01B8080319EF0A2200B201B9
:100F60002100EF08031DB62F2200B20A220032181A
:100F70008E14321C8E102100EF01C9080319EF0AEC
:100F80002200B2012100EF08031DC82F2200B20A7F
:100F9000220032188E16321C8E122100EF01DA0860
:100FA0000319EF0A2200B2012100EF08031DDA2F16
:100FB0002200B20A220032188C16321C8C12210038
:100FC0000E100E118E110E120C118E108E128C122C
:100FD000E701E801E901EA01EB01EC01ED01EE01B5
:100FE0002200B001B101F62136082100EF00EF0820
:100FF000883103190428E708031D0428E808031DA5
:1010000004280A30E700E801F0306F052200B40040
:101010003408903A031D1C28F90803191C280F30C6
:1010200021006F052200B4007808B5007908B600E9
:1010300080317E258831B128F03021006F052200F3
:10104000B4003408803A03192E28F03021006F05CF
:101050002200B4003408903A031D39280F302100D3
:101060006F052200B4007808B5008031332588313F
:10107000B128F03021006F052200B2003208B03AEA
:10108000031D9F282100EB08031993287808633A71
:1010900003195428013A03195728643A03195A28A6
:1010A000203A03195A2887287908ED00B1287908D1
:1010B000EC00B12808306D0203187C28013085004F
:1010C000203084006D082200B9000310390D840718
:1010D0000008B400840A0008B50021006C08220052
:1010E000B6007908B700B801263078020319B80AAB
:1010F000803116248831B1286D08643A031DB12867
:101100006C03031DB12880319A208831B1280F303B
:101110006F052200B4007808B5007908B600803168
:1011200046268831B1280F306F052200B4007808B8
:10113000B5007908B600803146268831B128F030F4
:1011400021006F052200B3003308E03A031DB128E7
:101150000F3021006F052200B4007808B5008031FF
:1011600064232100E7088831031DB928E808031922
:10117000D928E7080319E803E7032200B401210096
:10118000E708031DC5282200B40A2100E808031956
:10119000CB282200B4012200B501B4080319B50A16
:1011A000351CD42820000C1622003518D928200020
:1011B0000C12FA0803199829FA012100E501E60149
:1011C0000830650266080318E7280319E928E61FB6
:1011D0002B29013085002030840065082200B400EE
:1011E0000310340D8407840A0008B5008403000846
:1011F000840035088500083084070008B600840A9A
:101200003608003C00080318031D801B2629013006
:10121000850020308400210065082200B6000310FC
:10122000360D8407840A0008B70084030008840090
:1012300037088500083084070008B800840AB80819
:1012400003198003B8038403380880002100E50AED
:101250000319E60AE028EB08031D512920008C1D24
:1012600035292100E901EA0198292100E90A031939
:10127000EA0A03306A02031D3F29E8306902031CB1
:101280009829EA1B982920000C1601302200B4008E
:1012900080312B2020000C1201302100EB0088311E
:1012A0009829E40803197E2920008C1964290C165A
:1012B00001302200B40080312B2020000C129A2033
:1012C0002100E401883198292200B00A0319B10AEB
:1012D0003008B40031080139B500B408031D98295D
:1012E000B508031D98292100E708031D9829E8087F
:1012F000031D98296430E700E80198292200B00A0C
:101300000319B10A3008B40031080739B500B40830
:10131000031D9829B508031D98292100E708031D1E
:101320009829E808031D9829F430E7000130E80007
:101330002000BB080319BC292200B7012000BC080B
:10134000031DA4292200B70A2000BD080319AA29F9
:101350002200B7012200B6012000400821006E02E1
:101360000318B4292200B60A2200B401B608031DEE
:10137000B708031DB40AD7292200B601200040088F
:1013800021006E020318C6292200B60A2200B50108
:101390002000BC080319BD080319D0292200B60893
:1013A0000319D4292200B50A22003508B4003418E4
:1013B0000E14341C0E102000CC080319FF29220043
:1013C000B7012000CD08031DE7292200B70A20003D
:1013D000CE080319ED292200B7012200B601200032
:1013E000510821006E020318F7292200B60A2200D4
:1013F000B401B608031DB708031DB40A1A2A220057
:10140000B6012000510821006E020318092A2200AB
:10141000B60A2200B5012000CD080319CE08031931
:10142000132A2200B6080319172A2200B50A22003F
:101430003508B40034180E15341C0E112000DD08D8
:101440000319422A2200B7012000DE08031D2A2AC0
:101450002200B70A2000DF080319302A2200B70152
:101460002200B6012000620821006E0203183A2A09
:101470002200B60A2200B401B608031DB708031DF6
:10148000B40A5D2A2200B6012000620821006E0223
:1014900003184C2A2200B60A2200B5012000DE08FB
:1014A0000319DF080319562A2200B60803195A2A1D
:1014B0002200B50A22003508B40034188E15341CF9
:1014C0008E112000EE080319832A2200B7012000A4
:1014D000EF08031D6D2A2200B70AF0080319722ACB
:1014E0002200B7012200B601730821006E02031822
:1014F0007B2A2200B60A2200B401B608031DB708F1
:10150000031DB40A9D2A2200B601730821006E0251
:1015100003188C2A2200B60A2200B5012000EF0829
:101520000319F0080319962A2200B60803199A2A0B
:101530002200B50A22003508B40034180E16341CF7
:101540000E122100A7080319C42A2200B7012100A6
:10155000A808031DAD2A2200B70A2100A908031913
:10156000B32A2200B7012200B60121002C086E0226
:101570000318BC2A2200B60A2200B401B608031DD3
:10158000B708031DB40ADE2A2200B60121002C0888
:101590006E020318CD2A2200B60A2200B5012100EE
:1015A000A8080319A9080319D72A2200B6080319A5
:1015B000DB2A2200B50A22003508B40034180C15C5
:1015C000341C0C112100B8080319052B2200B701A7
:1015D0002100B908031DEE2A2200B70A2100BA082B
:1015E0000319F42A2200B7012200B60121003D08A8
:1015F0006E020318FD2A2200B60A2200B401B608C2
:10160000031DB708031DB40A1F2B2200B6012100D9
:101610003D086E0203180E2B2200B60A2200B50107
:101620002100B9080319BA080319182B2200B608BB
:1016300003191C2B2200B50A22003508B400341807
:101640008E14341C8E102100C9080319462B220069
:10165000B7012100CA08031D2F2B2200B70A210061
:10166000CB080319352B2200B7012200B601210057
:101670004E086E0203183E2B2200B60A2200B40167
:10168000B608031DB708031DB40A602B2200B6017B
:1016900021004E086E0203184F2B2200B60A2200CA
:1016A000B5012100CA080319CB080319592B2200E0
:1016B000B60803195D2B2200B50A22003508B400D4
:1016C00034188E16341C8E122100DA080319872B69
:1016D0002200B7012100DB08031D702B2200B70A8E
:1016E0002100DC080319762B2200B7012200B60185
:1016F00021005F086E0203187F2B2200B60A220029
:10170000B401B608031DB708031DB40AA12B2200BB
:10171000B60121005F086E020318902B2200B60A62
:101720002200B5012100DB080319DC0803199A2BFC
:101730002200B60803199E2B2200B50A22003508A4
:10174000B40034188C16341C8C122100EE0A6E087A
:10175000643C031CEE018031F32FFA01FB01FC0114
:10176000FD01FE01FF01F8012100E4018031F42EAA
:101770000B1DC02B0530200095000130FA000B1125
:101780002000911E0900230019082200CF007B0AC7
:10179000D00014305002031CCF2B1430D0027C0830
:1017A00050060319090000308500203084007B08B2
:0C17B00084074F0880005008FB0009006F
:020000040001F9
:02000E00A4FF4D
:02001000FFDE11
:00000001FF
